S3150000000020010020FF0200000B0300000D0300008A
S3150000001000000000000000000000000000000000DA
S315000000200000000000000000000000000F030000B8
S315000000300000000000000000110300006302000041
S31500000040150300001503000015030000150300004A
S31500000050150300001503000015030000150300003A
S31500000060150300001503000015030000150300002A
S3150000007073020000150300001503000015030000BD
S3150000008015030000AD020000150300001503000073
S3150000009015030000150300001503000015030000FA
S315000000A015030000150300001503000015030000EA
S315000000B09B02000015030000150300004702000024
S315000000C00348854601F0BEF8004800476D01000070
S315000000D02001002010B57A4841680122120611431A
S315000000E04160C16B032212061143C16375480021AA
S315000000F04160754A826048220260026802602822D6
S31500000100C2600161112000F03AFC10BD6C48416BE1
S315000001100122920511434163826B41150A438263B2
S315000001206A48436A0322120213434362036A134373
S315000001300362C2690A43C261816982151143816102
S315000001406348426940210A43426102688A43026069
S3150000015060480421C170C17856221143C170002144
S315000001608170417042784270017070475448816BCB
S315000001700322520211438163C26B81030A43C263A5
S31500000180554A1368DBB21360C26B8A43C263826B43
S3150000019001150A438263514CA06A07273F02B84300
S315000001A0FF300130A0624A4D4035686908436861F6
S315000001B0A9606069B843FF30013060616869400832
S315000001C04000686160690F210904884305214904DC
S315000001D0401860611F2000F0D2FB414800260661EE
S315000001E03949416186610169072211430161E06A6B
S315000001F0B843FF300130E0626869E1140843686182
S315000002000C2000F0BCFBFF200121F53000F0A8FE19
S31500000210FFF77CFF00F0C6FE0D2000F0C8FE014689
S3150000022030A001F043F8FFF755FF314829490A226B
S315000002304378002BFCD046700B789B06FCD58A7160
S315000002408B790370F4E725488030016A890607D563
S31500000250016A2022114301621D4900154031C86020
S31500000260704701201A49C0024031C8601C48006925
S31500000270704710B51F484168090304D5416801223B
S31500000280D204114341604168890205D5C068184906
S31500000290C0B2087000F04BF810BD17480168802204
S315000002A011430160124901204870704705480168F2
S315000002B0090603D5016880221143016070470000DA
S315000002C0008004400080034080BB00000090044092
S315000002D000F00F400060074000D0034000A004403B
S315000002E000E000E0746D70203D2025780D0A0000C6
S315000002F0000000200040054000000440704706480A
S3150000030080470648804706480047FEE7FEE7FEE7C7
S31500000310FEE7FEE7FEE7000065050000FD020000BF
S31500000320C100000010B5074800F012FC10BD10B562
S315000003300146044800F012FC10BD10B5014800F05B
S3150000034012FC10BD0040054070B5204DA86B03217E
S3150000035049020843A8631E488178090703D58178B6
S3150000036008221143817000F0C9FD1A4C0028206054
S3150000037001D1194820606868012189060843686030
S3150000038020687D210546C900206100F017FF0F4E49
S31500000390606040367168090F491C00F0F9FEA060E4
S315000003A071684903490F491C00F0F2FEE060032121
S315000003B00A480902C16001614115416081604B2212
S315000003C012022946064800F0A1FB70BD00800440D9
S315000003D000D00740040000204054890000A00440DB
S315000003E00040054030B47446641E2578641CAB4258
S315000003F000D21D46635D5B00E31830BC18477047AA
S31500000400FFFFFFFFFFFFFFFFFFFFFFFFFE3DFFFFB9
S3150000041010B5614C606A4000400F0300FFF7E2FF31
S315000004200504061416181A005CA000E05DA000F092
S315000004303DFF606A4001400F801E0300FFF7D2FFB8
S31500000440050C0E212325270058A0F0E759A0EEE75A
S315000004505AA0ECE75BA0EAE764A000E064A000F025
S3150000046025FF64A000F022FF606A0007000F03006A
S31500000470FFF7B8FF0B0F111F2F21232527292B2D3F
S315000004802F005DA0EBE75DA0E9E75DA0E7E75DA0D3
S31500000490E5E767A000E06AA000F008FF606A400395
S315000004A0400F0300FFF79EFF0817192F313335372A
S315000004B0393B67A0F0E76AA0EEE76DA0ECE770A015
S315000004C0EAE773A0E8E776A0E6E779A0E4E77CA090
S315000004D0E2E77FA0E0E789A000E08DA000F0E6FE5D
S315000004E00F2190A000F0E2FE2B484030C0680001CA
S315000004F0000F052823D014DC00281AD001281AD0B2
S31500000500032814D119E08BA0E8E78FA0E6E793A0B3
S31500000510E4E797A0E2E79BA0E0E79FA0DEE7A3A0C1
S31500000520DCE707280DD009280DD00F2805D0A6A096
S315000005300AE0ACA008E0BAA006E0C8A004E0D6A095
S3150000054002E0E4A000E0F2A000F0B0FE10BD10B59D
S31500000550FE4900200860FFF7F7FE00F00DFBFFF7ED
S3150000056057FF10BDF3E730B5F9480324C4710021E5
S315000005708171417101710122C27380230370057874
S315000005802D06FCD5C4718171417104210171C273BC
S31500000590037001780906DDE1008004400A4B4C3007
S315000005A0000000000A4B4C31000000000A4B4C32A0
S315000005B0000000000A4B4C33000000000A4B4C348C
S315000005C0000000000A556E7265636F676E697A6592
S315000005D064204B696E657469732066616D696C7918
S315000005E0206465766963652E0A000000320000000B
S315000005F03300000020200000340000003500000019
S31500000600360000000A556E7265636F676E697A651B
S3150000061064204B696E65746973207375622D66611B
S315000006206D696C79206465766963652E0A00000041
S31500000630313670696E202020202020200000000026
S31500000640323470696E202020202020200000000017
S31500000650333270696E202020202020200000000008
S31500000660343870696E2020202020202000000000F1
S31500000670363470696E2020202020202000000000E3
S31500000680383070696E2020202020202000000000D5
S31500000690383170696E2020202020202000000000C4
S315000006A031303070696E20202020202000000000AC
S315000006B031323170696E2020202020200000000099
S315000006C031343470696E2020202020200000000084
S315000006D00A556E7265636F676E697A6564204B6949
S315000006E06E65746973207061636B61676520636F03
S315000006F064652E2020202020200000005352414D0A
S315000007002053697A653A20302E35204B420A000084
S315000007105352414D2053697A653A202031204B428D
S315000007200A00000053696C69636F6E20726576205B
S3150000073025640A005352414D2053697A653A2020B8
S3150000074032204B420A0000005352414D2053697A31
S31500000750653A202034204B420A0000005352414D96
S315000007602053697A653A202038204B420A0000005F
S315000007705352414D2053697A653A20203136204B39
S31500000780420A00005352414D2053697A653A2020AF
S315000007903332204B420A00005352414D2053697AAE
S315000007A0653A20203634204B420A00000A556E7204
S315000007B065636F676E697A6564205352414D2053B5
S315000007C0697A652E0A000000455252212120556E95
S315000007D0646566696E656420666C6173682073691A
S315000007E07A650A00466C6173682073697A653A20F7
S315000007F02038204B422070726F6772616D20666CE4
S315000008006173682C20302E3235204B422070726F77
S3150000081074656374696F6E20726567696F6E0A002E
S31500000820466C6173682073697A653A2020313620F8
S315000008304B422070726F6772616D20666C617368DF
S315000008402C20302E35204B422070726F74656374F5
S31500000850696F6E20726567696F6E0A00466C617318
S31500000860682073697A653A20203332204B42207023
S31500000870726F6772616D20666C6173682C2031201F
S315000008804B422070726F74656374696F6E20726577
S3150000089067696F6E0A000000466C617368207369B1
S315000008A07A653A20203634204B422070726F677288
S315000008B0616D20666C6173682C2032204B4220707B
S315000008C0726F74656374696F6E20726567696F6EA7
S315000008D00A000000466C6173682073697A653A20E5
S315000008E020313238204B422070726F6772616D2062
S315000008F0666C6173682C2034204B422070726F74D2
S31500000900656374696F6E20726567696F6E0A0000B1
S31500000910466C6173682073697A653A2020323536F1
S31500000920204B422070726F6772616D20666C617336
S31500000930682C2038204B422070726F74656374698E
S315000009406F6E20726567696F6E0A00000081044051
S315000009500000024000D41CE630BD00002B480169AF
S3150000096004221143016130BF7047284801690422FF
S315000009709143016130BF704724498860704710B5C4
S31500000980202803DD22A000F091FC10BD2E490A6844
S31500000990C317DB0E1B185B095B01C31A01209840C5
S315000009A002430A6029490A6802430A6010BD10B56D
S315000009B0202803DD26A000F079FC10BDC117C90E62
S315000009C0091849094901411A012088401F49803107
S315000009D0086010BD10B50C46202805DD2BA000F0E0
S315000009E065FC032C02DC10BD032C03DD36A000F0F1
S315000009F05DFC10BDC117890F08188005000E42491D
S31500000A0080004018A101017010BD000000ED00E05B
S31500000A100A4552522120496E76616C69642049521A
S31500000A20512076616C7565207061737365642074FE
S31500000A306F20656E61626C65206972712066756EE5
S31500000A406374696F6E210A0080E200E000E100E055
S31500000A500A4552522120496E76616C6964204952DA
S31500000A60512076616C7565207061737365642074BE
S31500000A706F2064697361626C6520697271206675A6
S31500000A806E6374696F6E210A000000000A455252B7
S31500000A902120496E76616C69642049525120766145
S31500000AA06C75652070617373656420746F20707255
S31500000AB0696F72697479206972712066756E6374E4
S31500000AC0696F6E210A0000000A4552522120496EC4
S31500000AD076616C6964207072696F726974792076C8
S31500000AE0616C75652070617373656420746F207026
S31500000AF072696F72697479206972712066756E63A6
S31500000B0074696F6E210A000000E400E070B50446C7
S31500000B1017480B46816B01252D052943816300206B
S31500000B20A06020681146C000C00E401C4143184614
S31500000B3000F044FB2168490B490321602168C00489
S31500000B40C00C01432160A0680A490843A06070BD3B
S31500000B5041688902FCD5C068C0B27047426812027B
S31500000B60FCD5C160704740680121490508407047BF
S31500000B700080044000002C0870B5434C6078800665
S31500000B8002D542A000F092FB6078000702D548A08B
S31500000B9000F08CFB6078400702D549A000F086FB88
S31500000BA06078800702D54AA000F080FB2078000616
S31500000BB002D54EA000F07AFB2078400602D54FA061
S31500000BC000F074FB2078800602D551A000F06EFB81
S31500000BD02078800702D554A000F068FB2078C00773
S31500000BE042D058A000F062FB634D297863A000F064
S31500000BF05DFB697869A000F059FBA9786FA000F049
S31500000C0055FBE97876A000F051FB68784007400F65
S31500000C10032802D17AA000F049FB68784007400F0C
S31500000C20042807D1A8784007400F012802D179A0EF
S31500000C3000F03CFB68784007400F042807D1A878ED
S31500000C404007400F022802D178A000F02FFB6878F9
S31500000C504007400F042807D1A8784007400F032813
S31500000C6002D178A000F022FB207800280AD1607813
S31500000C70002807D1217879A000F018FB617881A0BF
S31500000C8000F014FB70BD000000F0074053746F7055
S31500000C90204D6F64652041636B6E6F776C6564678A
S31500000CA065204572726F722052657365740A000082
S31500000CB04D444D2D41502052657365740A00000065
S31500000CC0536F6674776172652052657365740A00A6
S31500000CD0436F7265204C6F636B7570204576656E49
S31500000CE0742052657365740A00000000506F7765C2
S31500000CF0722D6F6E2052657365740A0045787465AF
S31500000D00726E616C2050696E2052657365740A00BC
S31500000D105761746368646F6728434F502920526592
S31500000D207365740A000000004C6F772D766F6C7443
S31500000D3061676520446574656374205265736574E4
S31500000D400A0000005B6F75745352535D57616B6503
S31500000D50757020626974207365742066726F6D20E9
S31500000D606C6F7720706F776572206D6F6465206594
S31500000D707869740A0000000000E007405B6F757434
S31500000D805352535D534D435F504D50524F542020A4
S31500000D90203D202523303258200D0A005B6F7574E4
S31500000DA05352535D534D435F504D4354524C202094
S31500000DB0203D202523303258200D0A005B6F7574C4
S31500000DC05352535D534D435F53544F504354524C0B
S31500000DD02020203D202523303258200D0A00000017
S31500000DE05B6F75745352535D534D435F504D53546F
S31500000DF041542020203D202523303258200D0A0062
S31500000E005B6F75745352535D204C4C532065786963
S31500000E1074200A005B6F75745352535D20564C4C18
S31500000E2053312065786974200A0000005B6F757481
S31500000E305352535D20564C4C5332206578697420CA
S31500000E400A0000005B6F75745352535D20564C4C7C
S31500000E5053332065786974200A0000005B6F75744F
S31500000E605352535D52434D5F5352533020697320A2
S31500000E705A45524F2020203D202523303258200D40
S31500000E800A0000005B6F75745352535D52434D5F09
S31500000E9053525331206973205A45524F2020203D2A
S31500000EA0202523303258200D0A00000010B50446D4
S31500000EB00A2802D10D2000F011F8204600F00EF8A5
S31500000EC010BD10B500F012F810BD0020C0437047E9
S31500000ED010B500F003F810BDFEE7000010B504469B
S31500000EE0C1B20548FFF73AFEE0B210BD10B50248A0
S31500000EF0FFF72EFE10BD0000004005400A48017EA7
S31500000F0080221143017600210170084A00E0491C45
S31500000F1083791B079B0F01D09142F8D3914201D2EE
S31500000F20034870470020704700400640204E0000EE
S31500000F30006CDC0219498B6B012213438B63184941
S31500000F4000230B608860052048600868104308602D
S31500000F5008680006FCD5086840084000086070472D
S31500000F6010B50E4A946B01231C4394630C4A146813
S31500000F709C4314608907890F091D516080B29060F7
S31500000F801068802108431060C02010601068184364
S31500000F9010601C20FFF7F3FC10BD00000080044029
S31500000FA00000044010B5474800F0D4F810BD70B5F5
S31500000FB0444D0446284600F0AEF83A21284600F093
S31500000FC0A6F8284600F0B7F8284600F0BCF82146F7
S31500000FD0284600F09CF8284600F0ADF8284600F0B8
S31500000FE0B2F8284600F08EF87D21C90002200C4692
S31500000FF0401CA042FCDB401CA042F7DB3B212846FC
S3150000100000F085F8284600F096F8284600F09BF890
S31500001010284600F05EF8284600F06AF8284600F0F8
S3150000102078F8284600F087F8284600F07CF828462D
S3150000103000F06FF8054600F03FF821460220401CFC
S315000010408842FCDB401CA042F7DB284670BD70B529
S315000010501C4D04460E46284600F05DF83A21284607
S3150000106000F055F8284600F066F8284600F06BF8C0
S315000010702146284600F04BF8284600F05CF8284642
S3150000108000F061F83146284600F041F8284600F0A5
S3150000109052F8284600F057F8284600F044F800F0C9
S315000010A00BF87D22D20011460220401C8842FCDB50
S315000010B0401C9042F7DB70BD002000BF401C282872
S315000010C0FBDB704700600640817810221143817077
S315000010D070478178EF221140817070478178DF2256
S315000010E011408170704781782022114381707047CA
S315000010F0817808221143817070478178F722114068
S3150000110081707047817804221143817070470171A4
S3150000111070470079704700B50346FFF7E4FF1846AD
S31500001120FFF7D2FF00BD00B50346FFF7D7FF18460D
S31500001130FFF7CFFF00BDC1788907FCD5C178022231
S315000011401143C1707047C078C00701D000207047B6
S31500001150012070470B48416B4022114341630A4905
S315000011604015C860086109486D2141708021817071
S315000011707047002181700348416B402291434163CF
S31500001180704700000080044000A004400060064054
S3150000119030B50B46014600202022012409E00D4609
S315000011A0D5409D4205D31D469540491B2546954091
S315000011B040191546521E002DF1DC30BD70B50024D5
S315000011C02546002801DA01244042002901DA0125DA
S315000011D04942FFF7DDFFAC4200D04042002C00D070
S315000011E0494270BDF0B51FB40646002082B00546E0
S315000011F04024019100901BE0019922460F4630469B
S3150000120000F042F8049A059B801A994110D31046C3
S315000012101946224600F028F8361A8F4101972246D1
S3150000122001200021009F00F01FF838184D41009062
S315000012302046641E0028DFDC019B009829463246C2
S3150000124007B0F0BD064C0125064E05E0E36807CC65
S315000012502B430C3C98471034B442F7D3FEF734FFC7
S315000012605C1700007C17000010B5202A04DB01463D
S31500001270203A9140002010BD914020239C1A03463D
S31500001280E3401943904010BD10B5202A04DB084600
S31500001290203AD040002110BD0B46D340D040202438
S315000012A0A21A91400843194610BD00000FB410B5AC
S315000012B003A9044B044A029800F016F810BC08BCB7
S315000012C004B01847AD0E00001800002002E008C860
S315000012D0121F08C1002AFAD17047002001E001C19F
S315000012E0121F002AFBD17047FFB591B00F46054685
S315000012F0002606E025280AD0149A139990476D1CFB
S31500001300761C28780028F5D1304615B0F0BD0024AB
S3150000131000940121F34A029400E004436D1C2B78EB
S315000013200846203B98401042F7D128782A280ED04C
S31500001330022128780246303A092A15D8009A0A234B
S315000013405A43303A80180C436D1C0090F1E701CFE8
S315000013500090002805DA012040030443009840422B
S315000013600090022004436D1C28782E2815D10420F5
S31500001370044368786D1C2A280AD101CF6D1C02909F
S315000013800BE002990A225143303940186D1C029035
S315000013902878014630390929F3D928786C2810D0E5
S315000013A006DC4C281AD068280ED06A2817D104E02B
S315000013B0742813D07A2812D110E001204005044386
S315000013C00CE00121090501E0032109050C436978B8
S315000013D0814203D10120000524186D1C6D1C28785C
S315000013E003906E281ED00CDC632831D004DC002864
S315000013F08AD0582811D1B2E064287BD069280CD154
S3150000140078E073282DD004DC6F2870D0702804D1C2
S31500001410A7E075286CD078286BD0149A139990475A
S31500001420761C62E06002400F022807D003280AD02B
S31500001430042838680AD006603F1D56E03868F11760
S3150000144006604160F8E738680680F5E70670F3E75E
S315000014503878694608740020487404A8039001206F
S3150000146003E0386803900020C0433F1D61070FD595
S31500001470002101E00199491C029A0191914213DA77
S315000014808142F7DB019A0399895C0029F2D10BE0CE
S31500001490002101E00199491C01918142FADB019A80
S315000014A00399895C0029F5D101990098139A401A8D
S315000014B000902146149B00F03BF9019980194618CB
S315000014C007E0039803990078491C0391149A13992D
S315000014D090470198401E0190401CF2D12146149B72
S315000014E0139A009800F014F986196D1C09E741E07B
S315000014F033E034E00A200021049005916002410F98
S31500001500022905D001CFC2179446032905D007E06A
S31500001510FF1DFF08FF0003CF06E000B2C217944686
S31500001520042902D140B2C1178C4600226146944577
S3150000153006DA0A460021404291418C462D2102E0FE
S31500001540210504D52B216A461176012103E0E10726
S3150000155001D02021F7E7019154E00A200BE010208A
S3150000156009E010200490002104200443082005917E
S31500001570029003E008200021059104906002410FCB
S31500001580022905D001CF00229446032906D006E0A1
S31500001590FF1DFF08FF0003CF8C4603E080B204293D
S315000015A000D1C0B20021019121072BD503997029E2
S315000015B006D0049A1021059B4A401A4305D00EE036
S315000015C040216A461176012108E06146014306D0B2
S315000015D030216A4611760399517602210191049AC7
S315000015E00821059B4A401A430CD16146014301D1AB
S315000015F0610707D530216A461176012101910299CA
S31500001600491E02910399582904D037A103910FA9C5
S315000016100F910DE039A1F9E76146059B049AFFF7A2
S31500001620E1FD039B8C469B5C0F9A521E0F92137032
S3150000163061460143F0D10F9807A9081A203003909C
S31500001640600704D5012000048443029801E00120CC
S3150000165002900399884201DD401A00E000204118FB
S315000016600290019809180098401A0090E00306D4E9
S315000016702146149B139A009800F05AF88619002008
S31500001680049008E006A9085C149A139990470498F8
S31500001690401C761C049001998842F3DBE0030CD5CC
S315000016A02146149B139A009800F042F8861904E02C
S315000016B0149A302013999047761C0299481E02907E
S315000016C00029F5DC08E00F980F990078491C0F9166
S315000016D0149A13999047761C0399481E0390002983
S315000016E0F1DCFBE609280100303132333435363778
S315000016F03839616263646566000000003031323358
S3150000170034353637383941424344454600000000F7
S31500001710F8B5044600251E461746880404D405E09D
S3150000172039462020B0476D1C641EF9D52846F8BD01
S31500001730FFB50446002581B01E46C80301D53027F3
S3150000174000E02027880404D505E038460399B04711
S315000017506D1C641EF9D5284605B0F0BD7C17000047
S31500001760000000201C000000CC12000098170000AA
S315000017701C00002004010000DA1200000000000036
S315000017800000000000000000000000000000000053
S30D0000179000000000000000004B
S705000000C139
